:020000040000FA
:100000000C9424030C944C030C944C030C94120E8B
:100010000C94120E0C94120E0C944C030C944C0382
:100020000C944C030C944C030C944C030C944C0314
:100030000C944C030C944C030C944C030C944C0304
:100040000C94700D0C944C030C94E00D0C94BA0DB0
:100050000C944C030C944C030C944C030C944C03E4
:100060000C948A0E0C944C03084AD73B3BCE016E8D
:1000700084BCBFFDC12F3D6C74319ABD56833DDAFF
:100080003D00C77F11BED9E4BB4C3E916BAAAABE0E
:10009000000000803F05A84CCDB2D44EB93836A937
:1000A000020C50B9918688083CA6AAAA2ABE000074
:1000B00000803F003D3D3D3D3D3D3D3D3D3D3D3DA5
:1000C0003D3D3D3D3D3D3D3D3D3D3D3D3D3D3D3D60
:1000D0003D3D3D3D3D3D3D3D3D3D3D3D3D3D3D3D50
:1000E0003D3D3D3D3D3D3D3D3D3D3D3D3D3D3D3D40
:1000F0003D3D3D3D3D3D00206465677C20006D2019
:100100007C2000202053544152542020207C202069
:10011000202D2D2D2020207C2020204C41554E4389
:1001200048202000207C2000207C200020207C20F3
:1001300000300020002D2D2D2D2D2B2D2D2D2D2D82
:100140002D2D2D2D2D2D2D2D2B2D2D2D2D2D2D2DE1
:100150002D2D2D2D2D2D2B2D2D2D2D2D2D2D2D2DD1
:100160002D2B2D2D2D2D2D2D2D2D2D2B2D2D2D2DC3
:100170002D2D2D2D2D2D2D0057502023207C20207E
:10018000204C617469747564652020207C20204CAB
:100190006F6E67697475646520207C204C656720EC
:1001A00044697374207C2042656172696E67207CAB
:1001B0002043617264696E616C2020003D3D3D3DCD
:1001C0003D3D3D3D3D3D3D3D3D3D3D3D3D3D3D3D5F
:1001D0003D3D3D3D3D3D3D3D3D3D3D3D3D3D3D3D4F
:1001E0003D3D3D3D3D3D3D3D3D3D3D3D3D3D3D3D3F
:1001F0003D3D3D3D3D3D3D3D3D3D3D3D3D3D002089
:1002000020202020202020202020202020202020EE
:100210002020204D495353494F4E20464C494748D2
:100220005420574159504F494E54532020202020EC
:1002300020202020202020202020202020202020BE
:1002400020003D3D3D3D3D3D3D3D3D3D3D3D3D3D38
:100250003D3D3D3D3D3D3D3D3D3D3D3D3D3D3D3DCE
:100260003D3D3D3D3D3D3D3D3D3D3D3D3D3D3D3DBE
:100270003D3D3D3D3D3D3D3D3D3D3D3D3D3D3D3DAE
:100280003D3D3D3D0020776179706F696E7473204C
:10029000696D706F727465642E003E3E3E205B4D4A
:1002A000495353494F4E204C4F414445445D200033
:1002B0003E3E3E204155544F2D4C41554E43483A09
:1002C000204E617669676174696E6720746F20578C
:1002D0005020233121003E3E3E2044524F4E4520C7
:1002E00048414C5445442E003E3E3E204D49535318
:1002F000494F4E204C41554E4348454421004E4FF6
:10030000524D414C00545249474745524544002DF7
:100310002D2D2D2D2D2D2D2D2D2D2D2D2D2D2D2D0D
:100320002D2D2D2D2D2D2D2D2D2D2D2D2D2D2D2DFD
:100330002D2D2D2D2D2D2D2D2D2D2D2D2D2D2D2DED
:100340002D2D2D2D2D2D2D2D2D2D2D2D2D2D2D2DDD
:100350002D0054494C543A2000205B504154482011
:10036000434C4541525D00202A2A2A205B4F4253CC
:100370005441434C45204445544543544544215D34
:10038000202A2A2A0049522056414C55453A20003D
:1003900020646567006D207C2042454152494E47EC
:1003A0003A20005D207C20444953543A20005441B7
:1003B00052474554205750205B00207C205A3D0076
:1003C000207C20593D004759524F20286465672FF3
:1003D00073293A20583D00207C205A3D00207C2083
:1003E000593D00414343454C202867293A20583D58
:1003F0000020646567005D207C2048454144494EEB
:10040000473A20002C2000504F533A205B00206BCD
:100410006D2900206D6574657273202800544F5457
:10042000414C204D495353494F4E20444953544168
:100430004E43453A200020627974657300207C2089
:10044000465245452052414D3A20004D49535349AB
:100450004F4E20434F4D504C455445005245545546
:10046000524E494E4720484F4D4500484F4C444955
:100470004E472041542044455354494E4154494F1E
:100480004E0041564F4944494E47204F4253544134
:10049000434C45005455524E494E47004E41564933
:1004A000474154494E470049444C45005354415438
:1004B00055533A20002D2D2D2D2D2D2D2D2D2D2D4B
:1004C0002D2D2D2D2D2D2D2D2D2D2D2D2D2D2D2D5C
:1004D0002D2D2D2D2D2D2D2D2D2D2D2D2D2D2D2D4C
:1004E0002D2D2D2D2D2D2D2D2D2D2D2D2D2D2D2D3C
:1004F0002D2D2D2D2D2D2D003E3E3E2052454143CC
:1005000048454420574159504F494E542023003EFE
:100510003E3E2052544820434F4D504C4554454494
:10052000212044524F4E45204C414E4445442E20FC
:100530003C3C3C003E3E3E2044455354494E4154D1
:10054000494F4E20524541434845442120484F4C95
:1005500044494E472E2E2E203C3C3C003E3E3E2041
:100560004F42535441434C4520434C45415245442E
:100570002120526563616C63756C6174696E6720DC
:10058000706174682E2E2E003E3E3E20455641532B
:1005900049564520414354494F4E3A2053746565AE
:1005A00072696E6720524947485420746F20636C0B
:1005B000656172206F62737461636C652E2E2E000C
:1005C0003E3E3E2052544820494E495449415445EC
:1005D00044212052657475726E696E6720686F6D74
:1005E000652E2E2E203C3C3C0000000000240027FD
:1005F000002A0000000008000201000003040700B8
:100600000000000000000000000000230026002978
:100610000000000000250028002B0004040404044E
:10062000040404020202020202030303030303019F
:100630000204081020408001020408102001020476
:1006400008102000A90F2A1D11241FBECFEFD8E0EB
:10065000DEBFCDBF12E0A0E0B1E0E6EAF3E402C005
:1006600005900D92A035B107D9F725E0A0E5B2E0DD
:1006700001C01D92A53FB207E1F713E0C3E2D3E04A
:1006800004C02197FE010E946B21C232D107C9F735
:100690000E942D110C94C6210C94000083E48093D9
:1006A0007C0080917A00806480937A0080917A0047
:1006B00086FDFCCF8091780090917900089590910B
:1006C0002B0480912A042FEF3FEF981748F4E92F6D
:1006D000F0E0E65FFB4F208130E09F5F90932B04BA
:1006E000C901089590912B0480912A042FEF3FEFC8
:1006F000981748F4E92FF0E0E65FFB4F208130E0E7
:100700009F5F90932B04C9010895833081F028F4F2
:10071000813099F08230A9F008958730A9F08830AF
:10072000C9F08430B1F4809180008F7D03C0809146
:1007300080008F7780938000089584B58F7784BD83
:10074000089584B58F7DFBCF8091B0008F77809323
:10075000B00008958091B0008F7DF9CF1F93CF93A3
:10076000DF93282F30E0F901ED50FA4F8491F90121
:10077000E15DF94FD491F901E55EF94FC491CC23C5
:10078000A9F0162F81110E948503EC2FF0E0EE0FE7
:10079000FF1FEF5EF94FA591B4918FB7F894EC91DC
:1007A000111108C0D095DE23DC938FBFDF91CF916C
:1007B0001F910895DE2BF8CFCF93DF9390E0FC01DB
:1007C000E15DF94F2491855E994FFC018491882366
:1007D000D1F090E0880F991FFC01E751FA4FA591E5
:1007E000B491FC01EF5EF94FC591D49161110EC037
:1007F0009FB7F8948C91E22FE0958E238C932881FB
:10080000E223E8839FBFDF91CF9108958FB7F894DB
:10081000EC91E22BEC938FBFF6CF3FB7F894809129
:10082000060490910704A0910804B091090426B52C
:10083000A89B05C02F3F19F00196A11DB11D3FBF18
:10084000BA2FA92F982F8827BC01CD01620F711DE7
:10085000811D911D42E0660F771F881F991F4A95E1
:10086000D1F708952FB7F8946091020470910304B2
:1008700080910404909105042FBF089580912A046B
:1008800090912B04891B990B089508950895AF92B8
:10089000BF92CF92DF92EF92FF920F931F93CF936D
:1008A000DF936C017B018B01040F151FEB015E01CF
:1008B000AE18BF08C017D10759F06991D601ED9164
:1008C000FC910190F081E02DC6010995892B79F703
:1008D000C501DF91CF911F910F91FF90EF90DF90B5
:1008E000CF90BF90AF900895FC01538D448D252F7C
:1008F00030E0842F90E0821B930B541710F0CF96BA
:10090000089501970895FC01918D828D981761F0EB
:10091000A28DAE0FBF2FB11D5D968C91928D9F5F02
:100920009F73928F90E008958FEF9FEF0895FC01E1
:10093000918D828D981731F0828DE80FF11D858D94
:1009400090E008958FEF9FEF0895FC01918D228D27
:10095000892F90E0805C9F4F821B91098F739927AC
:1009600008958CE794E00E94A50421E0892B09F406
:1009700020E0822F089580E090E0892B29F00E94EA
:10098000B10481110C9400000895FC01A48DA80FFE
:10099000B92FB11DA35ABF4F2C91848D90E00196C1
:1009A0008F739927848FA689B7892C93A089B189E1
:1009B0008C91837080648C93938D848D981306C082
:1009C0000288F389E02D80818F7D80830895EF92E6
:1009D000FF920F931F93CF93DF93EC0181E0888FF9
:1009E0009B8D8C8D98131AC0E889F989808185FFC9
:1009F00015C09FB7F894EE89FF896083E889F9896B
:100A000080818370806480839FBF81E090E0DF916C
:100A1000CF911F910F91FF90EF900895F62E0B8DBF
:100A200010E00F5F1F4F0F731127E02E8C8D8E117A
:100A30000CC00FB607FCFACFE889F989808185FFE1
:100A4000F5CFCE010E94C504F1CFEB8DEC0FFD2F49
:100A5000F11DE35AFF4FF0829FB7F8940B8FEA899C
:100A6000FB8980818062CFCF0F931F93CF93DF9359
:100A70008C01D0E0C0E0F801EC0FFD1F649166230B
:100A800041F08CE794E00E94E704892B11F0219655
:100A9000F2CFCE01DF91CF911F910F910895CF93A7
:100AA000DF93EC01888D8823B9F0AA89BB89E88996
:100AB000F9898C9185FD03C0808186FD0DC00FB63C
:100AC00007FCF7CF8C9185FFF2CF808185FFEDCFBA
:100AD000CE010E94C504E9CFDF91CF910895209106
:100AE000DA023091DB022817390771F49091D802AD
:100AF0008091D902981741F0E091D802F0E0ED56CC
:100B0000FD4F808190E008958FEF9FEF0895089545
:100B1000EF92FF920F931F93CF93DF93DC015C96CC
:100B2000ED90FC905D97E114F10479F481E090E0A0
:100B300013969C938E93129790E080E0DF91CF9173
:100B40001F910F91FF90EF9008955196ED91FC91B8
:100B5000529750968C915097982F90950FB75E961C
:100B60002C915E97122F127021FD6095F8942081D0
:100B7000112319F1282B2083E7012197F1F728E0B1
:100B8000462F50E0308160FF1AC0382B3083E701D8
:100B90002197F1F7BA0175956795215089F71123CF
:100BA00081F08081892380830FBF5C968D919C9119
:100BB0000197F1F781E090E0C1CF2923DCCF392301
:100BC000E5CF9081892BEFCF2091DA023091DB02C3
:100BD0002817390761F48091D9022091D80290E05A
:100BE000805C9F4F821B91098F739927089590E035
:100BF00080E008952091DA023091DB02281739074E
:100C0000B9F49091D8028091D902981789F0E091B7
:100C1000D802F0E0ED56FD4F80812091D80230E0FF
:100C20002F5F3F4F2F7333272093D80290E0089512
:100C30008FEF9FEF0895CF93DF93EC018A859B851B
:100C4000AC85BD858E839F83A887B9870E943204B7
:100C50006A837B838C839D8381E089838883DF9192
:100C6000CF910895CF93DF93EC018E819F81A8856A
:100C7000B9858A839B83AC83BD830E9432046A87D3
:100C80007B878C879D8781E089838883DF91CF91E3
:100C9000089520917002260F3327331F213231052A
:100CA000ECF420915204FC0190E080E0243069F0E3
:100CB00082E00895A09170022191AC01405B5D4FEC
:100CC000A40FB52FB11D2C930196861798F3809130
:100CD0007002680F6093700280E0089581E00895CB
:100CE0001092520481E08093510410922C0461E030
:100CF00082E10E94AE0361E083E10E94AE03E9EB72
:100D0000F0E080818E7F808380818D7F808388E486
:100D10008093B80085E48093BC000895CF93DF935F
:100D200091E09093D7028823B9F0C091B800D09198
:100D3000BA008091BC008A7B8093BC0060E082E1B5
:100D40000E94AE0360E083E10E94AE030E94700641
:100D5000D093BA00C093B800DF91CF9108958F92DD
:100D60009F92AF92BF92CF92DF92EF92FF920F933A
:100D70001F93CF93DF93D0917B04D13208F0D7C07B
:100D8000182FC0917A040E940D046B017C018091A0
:100D9000520481116BC082E080935204109351047D
:100DA0008FEF8093500410924F04D0934E04AAE525
:100DB000B4E0EEE2F4E080E0D81391C010922D048C
:100DC00080912D04CC0FC82BC0932D0480912C044E
:100DD000813009F088C010922C040E940D046B0130
:100DE0007C0180912D048093BB00809154049091EC
:100DF0005504A0915604B0915704892B8A2B8B2B54
:100E0000A1F00E940D04009154041091550420910A
:100E10005604309157046C197D098E099F090617F5
:100E200017072807390708F442C08091BC0083FDEA
:100E3000D8CF85EC8093BC000E940D046B017C012F
:100E400080915204823009F450C0809150048F3F49
:100E500009F46FC080915004803209F46CC0809115
:100E60005004803309F469C084E026C080915404A2
:100E700090915504A0915604B0915704892B8A2B68
:100E80008B2B09F484CF0E940D0480905404909021
:100E90005504A0905604B09057046C197D098E0932
:100EA0009F0986169706A806B90608F070CF8091AC
:100EB00053040E948E0685E01092590410927B0420
:100EC00010925804DF91CF911F910F91FF90EF90F6
:100ED000DF90CF90BF90AF909F908F9008959D919D
:100EE00091938F5F69CF85EEA5CF80915404909147
:100EF0005504A0915604B0915704892B8A2B8B2B53
:100F000009F49ECF0E940D040091540410915504E1
:100F100020915604309157046C197D098E099F0960
:100F2000061717072807390708F08ACFC0CF81E0D6
:100F3000C3CF80E0C1CF82E0BFCF83E0BDCFE091DF
:100F40002B0480912A04E81730F4F0E0E65FFB4FB1
:100F5000808190E008958FEF9FEF0895CF92DF9208
:100F6000EF92FF920F931F93CF93DF937C01CB01FE
:100F70008A0120915804222389F0EB016B01C40EF1
:100F8000D51ECC15DD0569F06991D701ED91FC9175
:100F90000190F081E02DC7010995F3CF642F0E94E5
:100FA0004906C801DF91CF911F910F91FF90EF90FB
:100FB000DF90CF900895CF93DF931F92CDB7DEB728
:100FC0006983209158042223F9F020917B04203278
:100FD00058F021E030E0FC013383228390E080E090
:100FE0000F90DF91CF91089580915904E82FF0E0A0
:100FF000E65AFB4F998190838F5F809359048093C9
:101000007B0481E090E0ECCF61E0CE0101960E948C
:101010004906F7CF682F89E195E00C94DB0790E053
:1010200080E0089561E082E00E94AE0360E083E02A
:101030000E94AE0361E084E00E94AE0360E085E0C0
:101040000C94AE0360E082E00E94AE0360E083E0B7
:101050000E94AE0360E084E00E94AE0360E085E0A1
:101060000C94AE03FC0101900020E9F73197AF0129
:10107000481B590BBC018CE794E00C944704CF93B8
:10108000DF930E943405EC018EEE91E00E9432085D
:101090008C0F9D1FDF91CF9108958F929F92AF92F9
:1010A000BF920F931F93CF93DF93CDB7DEB7A19776
:1010B0000FB6F894DEBF0FBECDBF19A2423008F4C0
:1010C0004AE08E010F5D1F4F842E912CB12CA12C74
:1010D000A50194010E944921E62FB901CA01EA3015
:1010E000F4F4E05DD801EE938D01232B242B252B06
:1010F00079F790E080E0109719F0CD010E94320856
:10110000A1960FB6F894DEBF0FBECDBFDF91CF9191
:101110001F910F91BF90AF909F908F900895E95CC1
:10112000E1CFCF92DF92EF92FF92CF93DF936B01EB
:101130007C016DE28CE794E00E94E704EC016627F5
:101140007727CB016C197D098E099F094AE00E941F
:101150004D088C0F9D1FDF91CF91FF90EF90DF9096
:10116000CF900895BC01990F880B990B97FD0C94B3
:1011700091084AE00C944D084F925F926F927F92D3
:101180008F929F92AF92BF92CF92DF92EF92FF9297
:101190000F931F93CF936B017C01742EAC019B01C5
:1011A0000E94F720882399F081EF91E0CF911F9161
:1011B0000F91FF90EF90DF90CF90BF90AF909F90F6
:1011C0008F907F906F905F904F900C943208460103
:1011D0005701E894B7F82FEF3FEF4FE75FE7C501FE
:1011E000B4010E94F72081110DC02FEF3FEF4FE7B0
:1011F0005FE7C501B4010E94611E18161CF485EF5B
:1012000091E0D4CF2FEF3FEF4FE75FE4C701B60186
:101210000E942B2018161CF489EF91E0C7CF2FEF06
:101220003FEF4FE75FECC701B6010E94611E87FDEB
:10123000F3CF20E030E0A901C701B6010E94611E92
:1012400010E000E087FF0AC06DE28CE794E00E94A6
:10125000E7048C01F7FAF094F7F8F094C0E060E04E
:1012600070E080E09FE37C1641F020E030E040E257
:1012700051E40E946B1ECF5FF6CFA70196010E943A
:10128000831D2B013C010E94E41E4B015C014AE0DE
:101290000E944D087C01E00EF11ECC23C1F1C50176
:1012A000B4010E94131F9B01AC01C301B2010E9453
:1012B000821D4B015C016EE28CE794E00E94E70422
:1012C000E80EF91EC15018F120E030E040E251E490
:1012D000C501B4010E9438202B013C010E94E41E8C
:1012E0004B01B12CA12C4AE0C501B4010E944D086C
:1012F000E80EF91EC501B4010E94131F9B01AC0149
:10130000C301B2010E94821D4B015C01DBCFC7010A
:10131000CF911F910F91FF90EF90DF90CF90BF90F2
:10132000AF909F908F907F906F905F904F900895B7
:101330000C94BC082F923F924F925F926F927F92D3
:101340008F929F92AF92BF92CF92DF92EF92FF92D5
:101350000F931F93CF93DF93D82FC92F8B010E9438
:10136000461D24E630E040E050E00E94492149015A
:101370009B01AC0160E876E988E990E00E942521B4
:101380006B017C01F80191828082ED2FFC2F21916D
:10139000822F022E000C990BC0970A97C0F32E32B1
:1013A00039F51F0180E8882E86E9982E88E9A82E55
:1013B000B12C9AE0492E512C612C712CF101C19174
:1013C0001F010C2E000CDD0BE097CA30D10580F414
:1013D000C501B401A30192010E94492149015A01AA
:1013E000DE010E947C21C60ED71EE81EF91EE6CF44
:1013F000A5E0B0E0A70196010E9471216F5F7F4FC9
:101400008F4F9F4F23E030E040E050E00E944921A1
:10141000F80122833383448355831682DF91CF9171
:101420001F910F91FF90EF90DF90CF90BF90AF9002
:101430009F908F907F906F905F904F903F902F90F4
:1014400008951F93CF93DF93EC0118811D3209F4A7
:101450002196CE010E94461D9B01AC01A4E6B0E09E
:101460000E947121AB01BC01FE012991822F022E45
:10147000000C990BC0970A97B8F32E3231F5818191
:10148000082E000C990BC0978A309105F0F4AAE061
:10149000A89F9001A99F300D1124C901330FAA0BF9
:1014A000BB0B480F591F6A1F7B1F8281082E000C3F
:1014B000990BC0978A30910540F4092E000CAA0BB5
:1014C000BB0B480F591F6A1F7B1F1D3239F47095E3
:1014D0006095509541955F4F6F4F7F4FCB01BA019B
:1014E000DF91CF911F9108954F925F926F927F92FB
:1014F0008F929F92AF92BF92CF92DF92EF92FF9224
:101500000F931F93CF93DF93CDB7DEB72C970FB612
:10151000F894DEBF0FBECDBF69837A838B839C8333
:10152000ED82FE820F831887C601B5010E94821DDD
:1015300025E33AEF4EE85CE30E9438202B013C01A2
:1015400025E33AEF4EE85CE369817A818B819C81E7
:101550000E9438204B015C0125E33AEF4EE85CE342
:10156000C801B7010E9438206B017C01C301B201A0
:101570000E94A5206D837E838F839887C701B60163
:101580000E94661E69837A838B839C83C501B401A4
:101590000E94A52069877A878B879C87C301B20147
:1015A0000E94661E2B013C0129853A854B855C858E
:1015B00069817A818B819C810E943820A3019201EC
:1015C0000E9438202B013C01C501B4010E94661E17
:1015D0004B015C01C701B6010E94A5209B01AC0133
:1015E000C501B4010E943820A30192010E94821D0E
:1015F0006B017C0129813A814B815C816D817E8107
:101600008F8198850E943820A70196010E94021EB2
:101610006B017C0120E030E0A9010E94611E87FF80
:101620000AC02BED3FE049EC50E4C701B6010E942F
:10163000831D6B017C0121EE3EE245E652E4C701C9
:10164000B6010E9438202C960FB6F894DEBF0FBE6C
:10165000CDBFDF91CF911F910F91FF90EF90DF9061
:10166000CF90BF90AF909F908F907F906F905F9042
:101670004F9008954F925F926F927F928F929F92B8
:10168000AF92BF92CF92DF92EF92FF920F931F9390
:10169000CF93DF93CDB7DEB760970FB6F894DEBF78
:1016A0000FBECDBF69837A838B839C83CA01B90146
:1016B0002701A60195010E94821D25E33AEF4EE81D
:1016C0005CE30E9438206B017C010E94A5206D879D
:1016D0007E878F87988BC701B6010E94661E6D8337
:1016E0007E838F83988725E33AEF4EE85CE3698138
:1016F0007A818B819C810E9438204B015C0125E31B
:101700003AEF4EE85CE3C801B2010E9438202B0199
:101710003C01C501B4010E94A52069837A838B83B3
:101720009C83C501B4010E94661E4B015C01C3018C
:10173000B2010E94A52069877A878B879C87C301A5
:10174000B2010E94661E6B017C0129853A854B859A
:101750005C85C501B4010E9438202B013C01A70122
:10176000960169817A818B819C810E9438202D812C
:101770003E814F8158850E9438209B01AC01C301F6
:10178000B2010E94821D9B01AC010E9438202B01F6
:101790003C01A70196016D857E858F8598890E9401
:1017A00038209B01AC010E943820A30192010E94C5
:1017B000831D0E94B3202B013C01A7019601C501A6
:1017C000B4010E9438202D813E814F8158850E94AE
:1017D00038204B015C0129853A854B855C85698100
:1017E0007A818B819C810E9438209B01AC01C501CC
:1017F000B4010E94831D9B01AC01C301B2010E9490
:10180000021E26E73BE742EC5AE40E94382060962D
:101810000FB6F894DEBF0FBECDBFDF91CF911F9101
:101820000F91FF90EF90DF90CF90BF90AF909F907F
:101830008F907F906F905F904F9008954F925F923E
:101840006F927F928F929F92AF92BF92CF92DF92D0
:10185000EF92FF920F931F93CF93DF93CDB7DEB735
:1018600061970FB6F894DEBF0FBECDBF8EEE91E04C
:101870000E94320882E492E00E943F088FEF91E0DC
:101880000E943F088CEB91E00E943F0888E791E0BE
:101890000E943F0885E391E00E943F08198A30E1E9
:1018A000832E912C8091EB032989281708F0C6C05C
:1018B00083E391E00E94340589898A3020F481E332
:1018C00091E00E943405A9896A2F70E090E080E0E1
:1018D0004AE00E944D088CE291E00E943405B989EB
:1018E000EB2EF12C870123E0000F111F2A95E1F761
:1018F0000B5F1C4FF801608171818281938146E00A
:1019000050E00E94980988E291E00E943405D801D5
:1019100014966D917D918D919C91179746E050E0C2
:101920000E94980984E291E00E943405B989B111BE
:1019300008C083E091E00E943F0899899F5F998BDE
:10194000B1CFF80144805580668077808081918195
:10195000A281B38189839A83AB83BC83F70183E03F
:10196000EE0FFF1F8A95E1F7E350FD4F84819581CB
:10197000A681B7818D839E83AF83B8878081918153
:10198000A281B38189879A87AB87BC8763015201A3
:10199000E980FA800B811C812D813E814F81588521
:1019A000BC01CD010E943A0B6D877E878F87988B93
:1019B0002D813E814F81588569857A858B859C85EF
:1019C0000E94740A2B013C0141E050E06D857E8548
:1019D0008F8598890E9498098EEF90E00E943405C7
:1019E00041E050E0C301B2010E94980987EF90E006
:1019F0000E94340520E030E044E351E4C301B20129
:101A00000E94831D20E030E044EB51E40E946B1EF5
:101A10000E94DD1ECB01B4010E943521FC01EE0FB6
:101A2000FF1FE050FF4F80819181009711F00E94CD
:101A300032088EEE91E00E9432087FCF84EB90E076
:101A400061960FB6F894DEBF0FBECDBFDF91CF9188
:101A50001F910F91FF90EF90DF90CF90BF90AF90CC
:101A60009F908F907F906F905F904F900C943F0865
:101A700085ED8093BC008091540490915504A09111
:101A80005604B09157040796A11DB11D23E0B695E9
:101A9000A795979587952A95D1F72091BC0024FDAD
:101AA00003C010925204089540915404509155047B
:101AB0006091560470915704452B462B472B69F3D0
:101AC0000097A105B10541F02AE22A95F1F700C07F
:101AD0000197A109B109E1CF809153040C948E06BE
:101AE0001F920F920FB60F9211242F933F938F9353
:101AF0009F93AF93BF938091020490910304A091B0
:101B00000404B09105043091010423E0230F2D3724
:101B100058F50196A11DB11D209301048093020484
:101B200090930304A0930404B093050480910604E9
:101B300090910704A0910804B09109040196A11D99
:101B4000B11D8093060490930704A0930804B093FA
:101B50000904BF91AF919F918F913F912F910F9069
:101B60000FBE0F901F90189526E8230F0296A11D17
:101B7000B11DD2CF1F920F920FB60F9211242F9347
:101B80003F934F935F936F937F938F939F93AF9305
:101B9000BF93EF93FF938CE794E00E94C504FF91FD
:101BA000EF91BF91AF919F918F917F916F915F91D5
:101BB0004F913F912F910F900FBE0F901F9018954E
:101BC0001F920F920FB60F9211242F938F939F9312
:101BD000EF93FF93E0918C04F0918D048081E0916C
:101BE0009204F091930482FD1BC090818091950432
:101BF0008F5F8F7320919604821741F0E0919504D6
:101C0000F0E0E458FB4F958F80939504FF91EF919E
:101C10009F918F912F910F900FBE0F901F9018954D
:101C20008081F4CF1F920F920FB60F9211242F9341
:101C30003F934F935F936F937F938F939F93AF9354
:101C4000BF93EF93FF93E091DA02F091DB023097BC
:101C500049F0A685B7858585968D91FF14C09C9126
:101C60008923A1F4FF91EF91BF91AF919F918F9143
:101C70007F916F915F914F913F912F910F900FBE88
:101C80000F901F9018959C91892361F7A389B489BF
:101C90009C918589809589238C9386899789019762
:101CA000F1F7608D718DA685B785558538E020E008
:101CB000CB010197F1F7822F90E095958795282F1A
:101CC0004C91452309F02068315091F7868D81FDB4
:101CD00020958091D90290E001968F7399273091D9
:101CE000D802381799F0A091D902B0E0AD56BD4F97
:101CF0002C938093D902828D938D0197F1F7A3895C
:101D0000B4898C919589892B8C93ACCF868D816019
:101D1000868FF1CF1F920F920FB60F9211242F933F
:101D20003F934F935F936F937F938F939F93AF9363
:101D3000BF93EF93FF938091B900887F803609F4B9
:101D40004AC0F0F5883209F4A7C018F5803109F4CB
:101D50009BC0B8F4882309F4F9C0883009F494C012
:101D6000FF91EF91BF91AF919F918F917F916F9173
:101D70005F914F913F912F910F900FBE0F901F9049
:101D80001895883109F488C0803251F78093500447
:101D900014C0803409F49DC040F48033B9F3883313
:101DA000F9F68093500485ECB0C0803509F485C005
:101DB000883509F496C0883499F60E94380DD0CF42
:101DC000883909F48CC038F5883729F050F4883602
:101DD00011F0803729F683E080935204109292022A
:101DE00057C0883809F47BC0803919F0803809F071
:101DF000B7CF80919202803208F071C0E0919202D8
:101E000081E08E0F809392028091BB00F0E0EE584B
:101E1000FD4F80833DC0803B39F0E0F4803A09F407
:101E200079C0883A09F09CCF84E0809352041092E4
:101E3000710210927002E091D502F091D6020995DC
:101E40008091700281110FC081E080937002109226
:101E5000500209C0803C09F4A6CF883C09F4A3CF06
:101E6000883B09F07DCFE091710281E08E0F809375
:101E70007102F0E0E05BFD4F80818093BB009091A8
:101E800071028091700229C080912D048093BB0063
:101E900085EC8093BC0064CF90914F0480914E04F8
:101EA000981758F5E0914F0481E08E0F80934F040E
:101EB000F0E0E25DFB4F8081E9CFE0914F0481E0EB
:101EC0008E0F80934F048091BB00F0E0E25DFB4FEA
:101ED000808390914F0480914E049817C8F285E852
:101EE000D8CFE0914F0481E08E0F80934F04809112
:101EF000BB00F0E0E25DFB4F8083809151048111D3
:101F00005CCF81E080932C0484EA8093BC00109223
:101F1000520426CF85EC8093BC001092520480912D
:101F20009202803230F4E0919202F0E0EE58FD4FE0
:101F300010826091920270E0E091D302F091D4029D
:101F400082E792E00995109292020ACF1092500413
:101F500034CF10927F0410927E0488EE93E0A0E0CC
:101F6000B0E08093800490938104A0938204B093A6
:101F700083042CEB31E030937D0420937C0425EC2A
:101F800030E0309389042093880424EC30E03093CF
:101F90008B0420938A0420EC30E030938D0420934E
:101FA0008C0421EC30E030938F0420938E0422ECDB
:101FB00030E0309391042093900426EC30E030938D
:101FC0009304209392041092950410929604109218
:101FD00097041092980410921C0510921B05809390
:101FE0001D0590931E05A0931F05B09320052EECB0
:101FF00031E030931A052093190510924405109290
:10200000450510924705109246051092480510921A
:10201000490510924A0510924B0510924C051092FA
:102020004E0510924D0510924F05109250051092DA
:1020300051051092520510925305109255051092B9
:10204000540510925605109257051092580510929B
:10205000590510925A0510925C0510925B0510927A
:102060005D0510925E0510925F051092600510925A
:10207000610510926605109267051092680510922E
:10208000690510926A0510926B0510927405109202
:1020900075051092760510927705109278051092CA
:1020A000790510928205109283051092880510928E
:1020B000890510928A0510928B0510929005109256
:1020C000910510929605109297051092980510921E
:1020D000990510929E0510929F051092A4051092EA
:1020E000A5051092A6051092A7051092AC051092B6
:1020F000AD051092B2051092B3051092B40510927E
:10210000B5051092BA051092BB051092C005109249
:10211000C1051092C2051092C3051092C805109215
:10212000C90522E02093D9051092DA051092DB054B
:102130001092DC051092DE051092DD051092E0058C
:102140001092DF051092E1051092E2051092E3056E
:102150001092E4051092E5051092E6051092E7054D
:102160001092E8051092E9051092EA051092EB052D
:102170001092EC051092ED051092EE051092EF050D
:102180001092F0051092CA051092280510922705AA
:102190008093290590932A05A0932B05B0932C05D5
:1021A00080EE91E0909326058093250510923C05E2
:1021B00010923B0510923E0510923D05109240058D
:1021C00010923F051092420510924105609143051F
:1021D0006E7F6D7F609343056695617081E068272F
:1021E00089E00E94AE0361E089E00E94DC03E8E33D
:1021F000F6E0E491E0933505E4E2F6E0E491F0E006
:10220000EE0FFF1FEF5EF94F859194919093370584
:102210008093360560E088E00E94DC0380914305EE
:1022200081FD04C061E088E00E94AE0388E08093F5
:102230003105E7E3F6E0E491E0933205E3E2F6E00E
:10224000E491F0E0EE0FFF1FE95FF94F8591949163
:1022500090933405809333050895CF93DF93CDB7E2
:10226000DEB7A0970FB6F894DEBF0FBECDBF78944F
:1022700084B5826084BD84B5816084BD85B582608B
:1022800085BD85B5816085BD80916E00816080933C
:102290006E001092810080918100826080938100A5
:1022A00080918100816080938100809180008160B5
:1022B000809380008091B10084608093B100809110
:1022C000B00081608093B00080917A008460809338
:1022D0007A0080917A00826080937A0080917A00FF
:1022E000816080937A0080917A00806880937A0080
:1022F0001092C100E0918C04F0918D0482E0808303
:10230000E0918804F09189041082E0918A04F091B0
:102310008B048FEC808310929404E0919004F091F0
:10232000910486E08083E0918E04F0918F04808197
:1023300080618083E0918E04F0918F0480818860B9
:102340008083E0918E04F0918F0480818068808387
:10235000E0918E04F0918F0480818F7D80831092B4
:102360002B0410922A041092590410927B040E94AC
:10237000700685E494E09093D6028093D50286E4BB
:1023800094E09093D4028093D3021092D70288EB0A
:102390009BE0A0E0B0E08093540490935504A09398
:1023A0005604B093570481E0809353041092400583
:1023B00010923F0510923E0510923D0510923C058B
:1023C00010923B058DE991E0909342058093410581
:1023D00090913105963108F047C02DEB30E03093F5
:1023E0003C0520933B052BE931E030933E052093DB
:1023F0003D052CE231E03093400520933F052091CC
:10240000680084E0983048F031E09E3008F430E015
:1024100081E001C0880F3A95EAF7822B809368002B
:102420002DE630E0983050F02BE630E09E3030F072
:102430002CE630E0963110F030E020E030933905A2
:1024400020933805292F30E0983008F066C181E0EC
:1024500001C0880F9A95EAF780933A05809141056B
:10246000909142050197F1F780913F0590914005C9
:10247000892B49F1E091DA02F091DB0225E0E532A7
:10248000F20709F1309739F0A389B4899C918589C5
:10249000809589238C93809143058E7F809343059B
:1024A0001092D9021092D80285E295E09093DB0257
:1024B0008093DA02E0913805F0913905808190919E
:1024C0003A05892B808311E01093580488E68093A5
:1024D0007A041092590410927B048BE690E00E94DB
:1024E0000A0890E080E00E940A0881E00E94AF069E
:1024F000109358041092590410927B048CE190E0E0
:102500000E940A0890E080E00E940A0881E00E9490
:10251000AF06109358041092590410927B048BE17B
:1025200090E00E940A0890E080E00E940A0881E0A2
:102530000E94AF0660E081E10E94DC0360E086E07B
:102540000E94DC0361E082E00E94DC0361E083E042
:102550000E94DC0361E084E00E94DC0361E085E02E
:102560000E94DC030E94220883E18093EB0380E257
:1025700091E068EB71E025E033E048E0FC01D9012F
:1025800001900D924A95E1F70896285F3F4F681732
:10259000790799F78091050390910603A0910703AD
:1025A000B09108038093F9039093FA03A093FB037F
:1025B000B093FC038091090390910A03A0910B034F
:1025C000B0910C038093F5039093F603A093F70367
:1025D000B093F8031092EA031092EC038AE992E0B8
:1025E0000E9434054AE063E170E080E090E00E94E0
:1025F0004D0885E892E00E943F080E941E0C8091E1
:10260000EB03823058F181E08093EA0340910503A7
:102610005091060360910703709108034093F903FA
:102620005093FA036093FB037093FC0340910903FA
:1026300050910A0360910B0370910C034093F503D2
:102640005093F6036093F7037093F8031092EC0332
:102650008093F10380EB92E00E943F08CE01019647
:102660009C838B83222423948CE794E00E94A5040E
:10267000181619060CF096C08CE794E00E948304AB
:10268000E091FC028A3019F08D3009F07FC0EE2312
:1026900059F3F0E0E452FD4F10826DEF71E08CEDE4
:1026A00092E00E94A721892B41F063E072E08CED5B
:1026B00092E00E94A721892BE9F58091EB038230FB
:1026C00008F44AC02092EA03809105039091060322
:1026D000A0910703B09108038093F9039093FA0344
:1026E000A093FB03B093FC038091090390910A032C
:1026F000A0910B03B0910C038093F5039093F60324
:10270000A093F703B093F8031092EC032092F10327
:1027100088EE92E00E943F081FC09E3040F428508F
:10272000310981E001C0880F2A95EAF795CE2E5035
:102730003109F7CF65E072E08CED92E00E94A721AD
:10274000892B41F06AE072E08CED92E00E94A721B3
:10275000892B29F40E941E0C1092FC0285CF6CE09C
:1027600072E08CED92E00E94A721892B41F061E19B
:1027700072E08CED92E00E94A721892B69F71092FC
:10278000F1030E94220886ED92E0C4CFEF3108F0F9
:102790006BCF91E09E0F9093FC02F0E0E452FD4F6E
:1027A000808362CF0E9432040091FD031091FE03EA
:1027B0002091FF0330910004601B710B820B930B7F
:1027C0006C3B72408105910510F40C940A1D0E9427
:1027D00032046093FD037093FE038093FF03909394
:1027E000000485E295E00E94E405181619060CF035
:1027F000CEC285E295E00E94FA05182F8091E1058E
:102800009091E205A091E305B091E4050196A11D28
:10281000B11D8093E1059093E205A093E305B09389
:10282000E405143209F491C2E091DB0515320CF095
:10283000C6C01A3019F01D3009F095C2EF3008F00B
:102840003BC1F0E0E653FA4F10828091C90588231E
:1028500009F440C12091CA05822F022E000C990B69
:102860003FEB320F363008F0B6C0C7978295807FB5
:102870009091CB05292F092E000C330B4FEB490FFC
:10288000463008F0B0C027533109820F9091C80537
:102890008913FFC08091ED059091EE05A091EF05A1
:1028A000B091F0050196A11DB11D8093ED059093A7
:1028B000EE05A093EF05B093F0058091DC05882329
:1028C00099F08091E5059091E605A091E705B0911A
:1028D000E8050196A11DB11D8093E5059093E605DD
:1028E000A093E705B093E8050091D905002309F40A
:1028F00083C00130A1F586E695E00E94320684E7A8
:1029000095E00E9432068091DC05882341F187E042
:10291000E4E5F5E0A6E4B5E001900D928A95E1F7D3
:1029200087E0EBE5F5E0ADE4B5E001900D928A9526
:10293000E1F70E943204609362057093630580930F
:10294000640590936505009345050093440582E86E
:1029500095E00E941B0680E995E00E941B06E0902E
:10296000DF05F090E005E114F10409F4A5C0E09161
:10297000DF05F091E00566A177A1F70186A197A197
:102980000E94A721892B09F097C0B701C701409683
:102990000E94B0210E943204D70190966D937D93DE
:1029A0008D939C939397E1E09596EC939597F1E046
:1029B0009496FC9394979A96ED90FC90D4CF1A320B
:1029C00009F43CCF1C3209F0CEC18091C8058127A3
:1029D0008093C80533CF2156263018F487559109C6
:1029E00045CFC09743CF9156963018F427553109FB
:1029F0004CCF2053310949CF84E795E00E9432063D
:102A00008091DC05882321F187E0E4E5F5E0A6E488
:102A1000B5E001900D928A95E1F787E0EBE5F5E0EE
:102A2000ADE4B5E001900D928A95E1F70E94320481
:102A300060936205709363058093640590936505C8
:102A400020924505209244058EE995E00E941B06E0
:102A50008091B6059091B705A091B805B091B905E0
:102A60008093B2059093B305A093B405B093B505D8
:102A70000E9432046093AE057093AF058093B00559
:102A80009093B1052092AD052092AC058AEB95E0BC
:102A900064CF8091E9059091EA05A091EB05B09192
:102AA000EC050196A11DB11D8093E9059093EA05FF
:102AB000A093EB05B093EC058091DA058F5F8093CE
:102AC000DA051092DB0581E01A3209F080E080938C
:102AD000C90587CE9091DA05911146C063E172E095
:102AE0008AEC95E00E94A721892B41F069E172E010
:102AF0008AEC95E00E94A721892BF9F42092D90550
:102B00008091DD059091DE059093E0058093DF05CF
:102B1000E090DF05F090E005E114F10469F26AEC61
:102B200075E0D70196968D919C910E94A72197FF01
:102B300087C7F70182A593A5E7CF6FE172E08AEC22
:102B400095E00E94A721892B41F065E272E08AECB2
:102B500095E00E94A721892B19F41092D905D0CFB6
:102B600022E02093D905CCCFE091D905E23009F4D9
:102B700048C08091CA05882309F443C020E2E29F3F
:102B8000F0011124E92B3197E932F10508F039C041
:102B9000E453FA4E0C946B21F51538163F16461681
:102BA000491677167E168B16981601160116011611
:102BB000011601160116011601160116011601165D
:102BC000011601160116011601160116011601164D
:102BD0000116011601160116F515321638163F16A4
:102BE0004616491650165D166A168AEC95E00E9444
:102BF000210A60937A0570937B0580937C059093FE
:102C00007D05E090DF05F090E005D090DA05E11455
:102C1000F10409F451CFE091DF05F091E00566A1E0
:102C200077A1D70196968D919C910E94A721892B1F
:102C300009F042CFF70120A531A58D2D90E0821734
:102C400093070CF439CF2817390739F440E150E0E5
:102C50006AEC75E0C7010E94B721D7019A96ED9002
:102C6000FC90D3CF91E0813409F445C090E043C09B
:102C700064E575E08AEC95E00E949A09C2CF91E084
:102C8000833509F090E090935A05BBCF6BE575E072
:102C9000F1CF91E0873509F090E090936105B1CFD5
:102CA0008AEC95E00E94210A60938C0570938D0553
:102CB00080938E0590938F05A4CF8AEC95E00E94B7
:102CC000210A60939A0570939B0580939C059093CD
:102CD0009D0597CF8AEC95E00E94461D60936C0598
:102CE00070936D0580936E0590936F058ACF91E088
:102CF00081330CF4BBCF9093DC0583CF8AEC95E055
:102D00000E94461D6093B6057093B7058093B80581
:102D10009093B90576CF8AEC95E00E94210A6093E2
:102D2000C4057093C5058093C6059093C70569CF08
:102D30008AEC95E00E94210A6093A8057093A9058A
:102D40008093AA059093AB055CCF1092DB0510929F
:102D5000DA051092C805B2E0B093D9051092C90502
:102D60001092DC053ECDEE3040F481E08E0F809372
:102D7000DB05F0E0E653FA4F10838091C90581111D
:102D800030CD8091C80518271093C8052ACD8091B1
:102D90004405882309F45FC080914505882309F420
:102DA0005AC010924505609148057091490580917F
:102DB0004A0590914B050E94131F28E23BE64EE620
:102DC0005EE40E946B1E6B017C0160914605709170
:102DD000470590E080E00E94131F9B01AC01C701F2
:102DE000B6010E94831D20914C05211190586093DB
:102DF000F9037093FA038093FB039093FC036091B3
:102E00004F057091500580915105909152050E9497
:102E1000131F28E23BE64EE65EE40E946B1E6B0148
:102E20007C0160914D0570914E0590E080E00E941C
:102E3000131F9B01AC01C701B6010E94831D2091A5
:102E40005305211190586093F5037093F603809316
:102E5000F7039093F8032092580488E680937A044D
:102E60001092590410927B048BE390E00E940A08B0
:102E700080E00E94AF06182F811156C10E940D04F8
:102E80006B017C0180915204811163C02092520435
:102E9000209251048FEF8093500410924F048DE0E4
:102EA00080934E0420922D0480912D04806D809398
:102EB0002D0480912C04813009F083C110922C04E0
:102EC0000E940D046B017C0180912D048093BB0056
:102ED0008091540490915504A0915604B0915704E8
:102EE000892B8A2B8B2BA1F00E940D048090540417
:102EF00090905504A0905604B09057046C197D0929
:102F00008E099F0986169706A806B90608F442C0DE
:102F10008091BC0083FDD8CF85EC8093BC000E94DB
:102F20000D046B017C0180915204813009F44BC186
:102F300080914F048E3008F068C180914F04AEE25A
:102F4000B4E0EAE0F4E0181749F19D9191931F5F16
:102F5000FACF8091540490915504A0915604B091F9
:102F60005704892B8A2B8B2B09F48CCF0E940D04DC
:102F70008090540490905504A0905604B09057044B
:102F80006C197D098E099F0986169706A806B90651
:102F900008F078CF809153040E948E0610922B0483
:102FA00010932A041E3008F4BFC00E947203182F29
:102FB0000E9472031E8B1D8A8D889E88882A992AFA
:102FC0000E947203182F0E947203188F1F8A6F8845
:102FD000788C682A792A0E947203182F0E94720343
:102FE0001A8F198EA98CBA8CA82AB92A0E9472034A
:102FF0000E9472030E947203182F0E9472031C8F9A
:103000001B8ECB8CDC8CC82AD92A0E947203F82E26
:103010000E947203FE8E1D8E4D8C5E8C482A592AAA
:103020000E947203382E0E9472037C01B401990C35
:10303000880B990B0E94151F20E030E040E858E310
:103040000E9438206093E6037093E7038093E803BF
:103050009093E903B301770C880B990B0E94151F1D
:1030600020E030E040E858E30E9438206093E2031B
:103070007093E3038093E4039093E503B501BB0CE5
:10308000880B990B0E94151F20E030E040E858E3C0
:103090000E9438206093DE037093DF038093E00387
:1030A0009093E103B601DD0C880B990B0E94151F6C
:1030B00020E030E043E053E40E946B1E6093DA03AB
:1030C0007093DB038093DC039093DD03B201550C16
:1030D000880B990B0E94151F20E030E043E053E479
:1030E0000E946B1E6093D6037093D7038093D8031E
:1030F0009093D90338A21F8E6F8D78A16E297F29F6
:10310000072E000C880B990B0E94151F20E030E061
:1031100043E053E40E946B1E6093D2037093D30389
:103120008093D4039093D5030E944E037C01909327
:10313000F4038093F303E9EFF5E08491E5E3F6E02F
:103140001491E1E2F6E0D490DD2079F081110E9443
:103150008503ED2DF0E0EE0FFF1FE95FF94FA5911C
:10316000B4918C91182381E009F480E08170809300
:10317000F2038091F103843009F049C00E943204C7
:103180000091ED031091EE032091EF033091F003D5
:10319000601B710B820B930B68387341810591059D
:1031A00008F4BEC02092EC038091EB038250809320
:1031B000EA0385E08093F10380EC95E00E943F08EC
:1031C000AFC085EEAACE8091540490915504A09191
:1031D0005604B0915704892B8A2B8B2B09F4A3CE6C
:1031E0000E940D048090540490905504A0905604C1
:1031F000B09057046C197D098E099F0986169706B1
:10320000A806B90608F08FCEC5CE8EE098CE8823EA
:1032100009F486C0863009F483C020E9E21621E073
:10322000F2060CF4A7C083E08093F1038091D103F0
:103230008F5F8093D10388E895E00E943F080E9449
:10324000120820E030E040EA51E46091CD03709133
:10325000CE038091CF039091D0030E94831D6B0118
:103260007C0120E030E044EB53E40E942B2087FFF8
:1032700070C0C092CD03D092CE03E092CF03F09203
:10328000D00322E838EA4BEF57E36091F5037091E1
:10329000F6038091F7039091F8030E94831D6093D9
:1032A000F5037093F6038093F7039093F8030E945D
:1032B0000D044B015C0198ECC92ED12CE12CF12CB2
:1032C0000E940D04681979098A099B09683E7340B8
:1032D00081059105A8F331E0C31AD108E108F1088E
:1032E00088EE880E83E0981EA11CB11CC114D10485
:1032F000E104F10429F70E944E039093F4038093B4
:10330000F3038039914024F08091D103863040F05E
:103310008CE595E00E943F081092D1032092F103C2
:1033200085EB94E00E943F088CEA94E00E9434050B
:10333000E091F103E73008F0F5C1F0E0EE55F64E0C
:103340000C946B218E1BDE1BE11BE41BE71BEA1BAD
:10335000ED1B20E030E044EB53E4C701B6010E94CE
:10336000821D6093CD037093CE038093CF0390931F
:10337000D00387CF3090EC039090EA0331108BC0DC
:103380002091EB03892D092C000C990B28171906A5
:1033900009F00CF4B8C0292D38E02302F001112403
:1033A000EB5FFC4F80819181A281B38189879A87ED
:1033B000AB87BC8784819581A681B7818D879E87E5
:1033C000AF87B88B4090F5035090F6036090F703F9
:1033D0007090F8038091F9039091FA03A091FB0398
:1033E000B091FC038D839E83AF83B887AD84BE8488
:1033F000CF84D888E984FA840B851C85A3019201C7
:10340000BC01CD010E943A0B698B7A8B8B8B9C8B14
:10341000609301037093020380930303909304036A
:10342000A30192016D817E818F8198850E94740A2B
:103430006B017C01C092FD02D092FE02E092FF027D
:10344000F092000320E030E040EA50E469897A8994
:103450008B899C890E94611E18160CF46CC088EF41
:1034600094E00E943405692D990C770B880B990B19
:1034700097FF5BC00E9491088EEE91E00E94320897
:103480009091EC038091EA03992309F452C0815092
:103490008093EA0345CF97FE7ECF86E08093F103C9
:1034A0000E9422088FE095E00E943F08809105036A
:1034B00090910603A0910703B09108038093F9034C
:1034C0009093FA03A093FB03B093FC03809109034C
:1034D00090910A03A0910B03B0910C038093F50324
:1034E0009093F603A093F703B093F8031092CD03E3
:1034F0001092CE031092CF031092D0031092EA03E1
:103500001092EC030DCF84E08093F1030E94220817
:103510000E9432046093ED037093EE038093EF03F7
:103520009093F00384E395E049CE4AE00E944D0871
:10353000A3CF8F5FADCF8090CD039090CE03A090AE
:10354000CF03B090D003A5019401C701B6010E943A
:10355000821D6B017C0120E030E044E353E40E94D3
:103560002B2018162CF420E030E044EB53E4EDCF90
:1035700020E030E044E353ECC701B6010E94611E35
:1035800087FF0BC020E030E044EB53E4C701B601F5
:103590000E94831D6B017C01EBCF20E030E040E70F
:1035A00051E4C701B6010E942B2018168CF592E059
:1035B0009093F1030E94120820E030E040E251E4D1
:1035C000C501B4010E94831D6B017C0120E030E045
:1035D00044EB53E40E942B2087FF09C0C092CD0327
:1035E000D092CE03E092CF03F092D00399CE20E0A8
:1035F00030E044EB53E4C701B6010E94821D6093A2
:10360000CD037093CE038093CF039093D00388CEE5
:1036100020E030E040E751ECC701B6010E94611E96
:1036200087FF2DC0A2E0A093F10360E082E00E943A
:10363000AE0361E083E00E94AE0360E084E00E949C
:10364000AE0361E085E00E94AE0320E030E040E29E
:1036500051E4C501B4010E94821D6B017C0120E090
:1036600030E0A9010E94611E87FFB8CF20E030E062
:1036700044EB53E4C701B6010E94831DC0CF85E02F
:10368000311001C081E08093F10361E082E00E948B
:10369000AE0361E083E00E94AE0361E084E00E943B
:1036A000AE0361E085E00E94AE032D813E814F8133
:1036B000588569857A858B859C850E94821D2AE9BB
:1036C00039E949E15EE30E9438202D813E814F8136
:1036D00058850E94831D6093F9037093FA038093C9
:1036E000FB039093FC03A30192016D857E858F857A
:1036F00098890E94821D2AE939E949E15EE30E9426
:103700003820A30192010E94831D6093F5037093FA
:10371000F6038093F7039093F80302CE87EA94E0D0
:103720000E9434058DE394E00E9434058091F105F8
:103730009091F205009711F485EF95E0EB81FC8103
:10374000E81BF90BCF010E94B20886E394E00E94C7
:103750003F08F091EB03FD8385E0882E83E0982EEF
:1037600033243394412C512C32012D813216C0F573
:10377000D4011C96AD90BD90CD90DC901F9718960B
:10378000ED90FD900D911C911B9714962D913D91FC
:103790004D915C9117976D917D918D919C910E94B7
:1037A0003A0B9B01AC01C301B2010E94831D2B01A6
:1037B0003C013394B8E08B0E911CD7CF8CE994E098
:1037C000AFCF84E994E0ACCF82E894E0A9CF8BE658
:1037D00094E0A6CF8CE594E0A3CF8BE494E0A0CF57
:1037E0008DE194E00E94340542E050E0C301B20153
:1037F0000E94980983E194E00E94340520E030E0C3
:103800004AE754E4C301B2010E946B1E43E050E05A
:103810000E9498098EE094E00E943F0887E094E0BF
:103820000E9434056091F9037091FA038091FB03C3
:103830009091FC0346E050E00E94980984E094E0F7
:103840000E9434056091F5037091F6038091F703AF
:103850009091F80346E050E00E94980986EF93E0CB
:103860000E9434056091CD037091CE038091CF0307
:103870009091D00341E050E00E94980981EF93E0DD
:103880000E943F0883EE93E00E9434056091E603B6
:103890007091E7038091E8039091E90342E050E0E2
:1038A0000E9498098DED93E00E9434056091E20337
:1038B0007091E3038091E4039091E50342E050E0CE
:1038C0000E94980987ED93E00E9434056091DE0321
:1038D0007091DF038091E0039091E10342E00E9448
:1038E000BC088EEE91E00E94320886EC93E00E94C4
:1038F00034056091DA037091DB038091DC039091D1
:10390000DD0341E050E00E94980980EC93E00E94C2
:1039100034056091D6037091D7038091D8039091BC
:10392000D90341E050E00E9498098AEB93E00E949D
:1039300034056091D2037091D3038091D4039091A8
:10394000D50341E00E94BC088EEE91E00E9432084F
:103950008091F1038630C9F18091EA03082F082E87
:10396000000C110B9091EB039017110671F16CF1A3
:1039700087FD2BC08EEA93E00E943405C8010E94A7
:10398000B20883EA93E00E943405609101037091CC
:103990000203809103039091040341E050E00E94F0
:1039A000980985E993E00E9434056091FD027091C9
:1039B000FE028091FF029091000341E050E00E94DE
:1039C000980980E993E00E943F0885E893E00E940F
:1039D00034058091F3039091F4030E94B208809122
:1039E000F3039091F4038039914024F187E693E04A
:1039F0000E943F0882E593E00E9434058091F20323
:103A00008823D9F085E093E00E943F088FE093E09F
:103A10000E943F0820E030E0232B11F40C94341373
:103A20000E94B104882311F40C9432130E94000008
:103A30000C94321389E593E0DBCF8EEF92E0E4CF74
:103A4000892B11F40C945C151092E0051092DF059F
:103A50000C945C1580EE91E09093260580932505EB
:103A60008091DA029091DB028552954071F4E091E9
:103A70003805F0913905908180913A058095892328
:103A800080831092DB021092DA0208951F93FC01EA
:103A900099278827BC01E89411911032E9F3193075
:103AA00010F01E30C8F31B3251F01D3249F46894F7
:103AB00006C00E946D1D610F711D811D911D119128
:103AC00010531A30B0F33EF490958095709561953F
:103AD0007F4F8F4F9F4F1F910895592F482F372F9A
:103AE000262F660F771F881F991F660F771F881F65
:103AF000991F620F731F841F951F660F771F881F02
:103B0000991F08955058BB27AA270E949A1D0C940C
:103B1000DD1F0E94A41F38F00E94AB1F20F039F473
:103B20009F3F19F426F40C947A1F0EF4E095E7FBFE
:103B30000C94741FE92F0E94022058F3BA176207F1
:103B400073078407950720F079F4A6F50C942420D8
:103B50000EF4E0950B2EBA2FA02D0B01B9019001A8
:103B60000C01CA01A0011124FF27591B99F0593FEC
:103B700050F4503E68F11A16F040A22F232F342F34
:103B80004427585FF3CF469537952795A795F04082
:103B90005395C9F77EF41F16BA0B620B730B840B97
:103BA000BAF09150A1F0FF0FBB1F661F771F881F4F
:103BB000C2F70EC0BA0F621F731F841F48F48795A7
:103BC00077956795B795F7959E3F08F0B0CF939599
:103BD000880F08F09927EE0F9795879508950E9412
:103BE000A41F60F080E891E009F49EEF0E94AB1FF3
:103BF00028F040E851E071F45EEF0CC00C947A1F9D
:103C00000C942420E92FE0780E94022040F3092E32
:103C1000052AB1F3261737074807590738F00E2E43
:103C200007F8E02569F0E025E0640AC0EF6307F8D3
:103C3000009407FADB01B9019D01DC01CA01AD0165
:103C4000EF930E94821E0E94DD1F0E94321E5F9130
:103C5000552339F02BED3FE049E450FD49EC0C943D
:103C6000831D0895DF93DD27B92FBF7740E85FE319
:103C70001616170648075B0718F4D92F0E94302044
:103C80009F938F937F936F930E94F320E8E6F0E079
:103C90000E947D1F0E94DD1F2F913F914F915F91E8
:103CA0000E944B20DD2351F09058A2EA2AED3FE01C
:103CB00049EC5FE3D0785D270E949A1DDF910C9458
:103CC000DD1F0E94501F08F481E008950E94B41F78
:103CD000E3950C94EE1F0E947F1E0C94DD1F0E9442
:103CE000AB1F58F00E94A41F40F029F45F3F29F059
:103CF0000C94741F51110C9425200C947A1F0E946F
:103D0000022068F39923B1F3552391F3951B550BCA
:103D1000BB27AA2762177307840738F09F5F5F4F9E
:103D2000220F331F441FAA1FA9F335D00E2E3AF0DD
:103D3000E0E832D091505040E695001CCAF72BD0F5
:103D4000FE2F29D0660F771F881FBB1F2617370746
:103D50004807AB07B0E809F0BB0B802DBF01FF2778
:103D600093585F4F3AF09E3F510578F00C94741FC2
:103D70000C9425205F3FE4F3983ED4F38695779525
:103D80006795B795F7959F5FC9F7880F911D969531
:103D9000879597F90895E1E0660F771F881FBB1F8D
:103DA000621773078407BA0720F0621B730B840B3A
:103DB000BA0BEE1F88F7E09508950E94E41E689400
:103DC000B1110C94252008950E940A2088F09F5775
:103DD00098F0B92F9927B751B0F0E1F0660F771F2F
:103DE000881F991F1AF0BA95C9F714C0B13091F025
:103DF0000E942420B1E008950C942420672F782F8E
:103E00008827B85F39F0B93FCCF3869577956795E9
:103E1000B395D9F73EF490958095709561957F4F55
:103E20008F4F9F4F0895E89409C097FB3EF49095FB
:103E30008095709561957F4F8F4F9F4F9923A9F083
:103E4000F92F96E9BB279395F69587957795679512
:103E5000B795F111F8CFFAF4BB0F11F460FF1BC056
:103E60006F5F7F4F8F4F9F4F16C0882311F096E9E9
:103E700011C0772321F09EE8872F762F05C0662397
:103E800071F096E8862F70E060E02AF09A95660F50
:103E9000771F881FDAF7880F9695879597F9089509
:103EA000990F0008550FAA0BE0E8FEEF161617064B
:103EB000E807F907C0F012161306E407F50798F0B3
:103EC000621B730B840B950B39F40A2661F0232BCC
:103ED000242B252B21F408950A2609F4A140A69548
:103EE0008FEF811D811D089597F99F6780E870E02D
:103EF00060E008959FEF80EC0895DF93CF931F93C8
:103F00000F93FF92EF92DF927B018C01689406C0C1
:103F1000DA2EEF010E944B20FE01E894A591259135
:103F2000359145915591A6F3EF010E949A1DFE012E
:103F30009701A801DA9469F7DF90EF90FF900F9155
:103F40001F91CF91DF91089500240A941616170649
:103F500018060906089500240A941216130614067A
:103F6000050608950C947A1F0E940A20D8F3E8945D
:103F7000E0E0BB279F57F0F02AED3FE049EC06C098
:103F8000EE0FBB0F661F771F881F28F0B23A62073B
:103F90007307840728F0B25A620B730B840BE39506
:103FA0009A9572F7803830F49A95BB0F661F771F89
:103FB000881FD2F790480C94FE20092E0394000C21
:103FC00011F4882352F0BB0F40F4BF2B11F460FFB3
:103FD00004C06F5F7F4F8F4F9F4F0895EF93E0FFB7
:103FE00007C0A2EA2AED3FE049EC5FEB0E949A1D70
:103FF0000E94DD1F0F90039401FC9058E5E9F0E06A
:104000000C94112157FD9058440F551F59F05F3FF4
:1040100071F04795880F97FB991F61F09F3F79F0EA
:1040200087950895121613061406551FF2CF46956C
:10403000F1DF08C0161617061806991FF1CF8695EE
:104040007105610508940895E894BB2766277727D2
:10405000CB0197F908950E94501F08F48FEF08953F
:104060009B01AC0160E070E080E89FE30C946B1E64
:104070000E944B200C94DD1F0E94A41F38F00E9468
:10408000AB1F20F0952311F00C94741F0C947A1F31
:1040900011240C9425200E94022070F3959FC1F3F7
:1040A000950F50E0551F629FF001729FBB27F00DE6
:1040B000B11D639FAA27F00DB11DAA1F649F66273B
:1040C000B00DA11D661F829F2227B00DA11D621F8A
:1040D000739FB00DA11D621F839FA00D611D221F44
:1040E000749F3327A00D611D231F849F600D211D28
:1040F000822F762F6A2F11249F5750409AF0F1F0AB
:1041000088234AF0EE0FFF1FBB1F661F771F881F13
:1041100091505040A9F79E3F510580F00C94741FB8
:104120000C9425205F3FE4F3983ED4F38695779571
:104130006795B795F795E7959F5FC1F7FE2B880FB9
:10414000911D9695879597F908959F930E94B41FA6
:104150000F9007FCEE5F0C94EE1F19F416F40C940C
:104160007A1F0C94FC200E940A20B8F39923C9F30B
:10417000B6F39F57550B87FF0E940A210024A0E643
:1041800040EA900180585695979528F4805C660F18
:10419000771F881F20F026173707480730F4621B67
:1041A000730B840B202931294A2BA6951794079469
:1041B000202531254A2758F7660F771F881F20F0E2
:1041C00026173707480730F4620B730B840B200D5A
:1041D000311D411DA09581F7B901842F9158880F99
:1041E0009695879508959B01AC010C9438200E9408
:1041F000501F880B990B08959F3F31F0915020F488
:10420000879577956795B795880F911D96958795B2
:1042100097F9089591505040660F771F881FD2F785
:1042200008959F938F937F936F93FF93EF939B01D9
:10423000AC010E943820EF91FF910E947D1F2F91C9
:104240003F914F915F910C943820DB018F939F93A6
:104250000E947121BF91AF91A29F800D911DA39FDC
:10426000900DB29F900D1124089597FB072E16F420
:10427000009407D077FD09D00E94842107FC05D067
:104280003EF4909581959F4F0895709561957F4F6D
:104290000895A1E21A2EAA1BBB1BFD010DC0AA1F87
:1042A000BB1FEE1FFF1FA217B307E407F50720F09F
:1042B000A21BB30BE40BF50B661F771F881F991F1A
:1042C0001A9469F760957095809590959B01AC0163
:1042D000BD01CF010895EE0FFF1F0590F491E02D71
:1042E00009940E949821A59F900DB49F900DA49FC2
:1042F000800D911D11240895B7FF0C9471210E9427
:104300007121821B930B0895AA1BBB1B51E107C0AF
:10431000AA1FBB1FA617B70710F0A61BB70B881F55
:10432000991F5A95A9F780959095BC01CD010895E4
:10433000A29FB001B39FC001A39F700D811D1124E6
:10434000911DB29F700D811D1124911D0895FB01D7
:10435000DC018D91019080190110D9F3990B08951A
:10436000FB01DC0101900D920020E1F70895FB01B3
:10437000DC014150504048F001900D920020C9F7F7
:1043800001C01D9241505040E0F7089513E0C3E290
:10439000D3E004C0FE010E946B212196C432D107F4
:1043A000C9F7F894FFCF2B022D02320231023302FB
:1043B0003502360239023D023F02400243024D02FD
:1043C00047024C024B02F91D114196AC1A427D1B6B
:1043D0001141D8AB1A42E418114122AC1A423B19E0
:1043E0001141A3AC1A42351A114152AE1A42C01AF9
:1043F0001141A9AF1A420E1B1141FFAF1A42301CE6
:1044000011411AB01A426C1C11415EB01A42941C40
:104410001141CEB01A42A01C114144B11A426D1E86
:1044200011413EB11A425020114138B11A42E220E6
:1044300011419FB21A421C201141A7B21A428D208D
:1044400011410DB31A42172111417FB31A426B215A
:104450001141ECB31A42E21F11410DB41A4200009F
:104460000000E704470474044F05A504830497047F
:1044700000000000DB07AE070F0887053E045F035E
:104480009F0700000000880547040F088705E40522
:10449000FA056F050D0A006E616E00696E66006FA9
:1044A00076660053544152540031004C4953540035
:1044B000320053544F500030004750524D43004794
:1044C0004E524D4300475047474100474E474741F2
:1044D000004E004E4E4500454E45004553450053A5
:1044E00053450053005353570057535700574E57E7
:0644F000004E4E570000D3
:107E0000112484B714BE81FFF0D085E080938100F7
:107E100082E08093C00088E18093C10086E0809377
:107E2000C20080E18093C4008EE0C9D0259A86E02C
:107E300020E33CEF91E0309385002093840096BBD3
:107E4000B09BFECF1D9AA8958150A9F7CC24DD24C4
:107E500088248394B5E0AB2EA1E19A2EF3E0BF2EE7
:107E6000A2D0813461F49FD0082FAFD0023811F036
:107E7000013811F484E001C083E08DD089C08234E0
:107E800011F484E103C0853419F485E0A6D080C0E4
:107E9000853579F488D0E82EFF2485D0082F10E0AE
:107EA000102F00270E291F29000F111F8ED06801E7
:107EB0006FC0863521F484E090D080E0DECF843638
:107EC00009F040C070D06FD0082F6DD080E0C81688
:107ED00080E7D80618F4F601B7BEE895C0E0D1E017
:107EE00062D089930C17E1F7F0E0CF16F0E7DF06D8
:107EF00018F0F601B7BEE89568D007B600FCFDCFD4
:107F0000A601A0E0B1E02C9130E011968C91119780
:107F100090E0982F8827822B932B1296FA010C0160
:107F200087BEE89511244E5F5F4FF1E0A038BF0790
:107F300051F7F601A7BEE89507B600FCFDCF97BE46
:107F4000E89526C08437B1F42ED02DD0F82E2BD052
:107F50003CD0F601EF2C8F010F5F1F4F84911BD097
:107F6000EA94F801C1F70894C11CD11CFA94CF0C13
:107F7000D11C0EC0853739F428D08EE10CD085E9AC
:107F80000AD08FE07ACF813511F488E018D01DD067
:107F900080E101D065CF982F8091C00085FFFCCF94
:107FA0009093C60008958091C00087FFFCCF809118
:107FB000C00084FD01C0A8958091C6000895E0E648
:107FC000F0E098E1908380830895EDDF803219F02E
:107FD00088E0F5DFFFCF84E1DECF1F93182FE3DFCA
:107FE0001150E9F7F2DF1F91089580E0E8DFEE27F6
:047FF000FF270994CA
:027FFE00040479
:00000001FF
